{
  "_format": "hh-sol-artifact-1",
  "contractName": "Account",
  "sourceName": "contracts/Account.sol",
  "abi": [
    {
      "inputs": [],
      "stateMutability": "nonpayable",
      "type": "constructor"
    },
    {
      "anonymous": false,
      "inputs": [
        {
          "indexed": false,
          "internalType": "uint8",
          "name": "version",
          "type": "uint8"
        }
      ],
      "name": "Initialized",
      "type": "event"
    },
    {
      "inputs": [
        {
          "internalType": "uint256",
          "name": "pubKeyX",
          "type": "uint256"
        },
        {
          "internalType": "uint256",
          "name": "pubKeyY",
          "type": "uint256"
        },
        {
          "internalType": "string",
          "name": "keyId",
          "type": "string"
        }
      ],
      "name": "addPassKeyOwner",
      "outputs": [],
      "stateMutability": "nonpayable",
      "type": "function"
    },
    {
      "inputs": [
        {
          "components": [
            {
              "internalType": "uint256",
              "name": "functionType",
              "type": "uint256"
            },
            {
              "internalType": "bytes",
              "name": "argument",
              "type": "bytes"
            },
            {
              "internalType": "uint256",
              "name": "nonce",
              "type": "uint256"
            },
            {
              "internalType": "bytes",
              "name": "signature",
              "type": "bytes"
            },
            {
              "internalType": "uint256",
              "name": "signatureType",
              "type": "uint256"
            },
            {
              "internalType": "string",
              "name": "passkeySigner",
              "type": "string"
            },
            {
              "internalType": "address",
              "name": "addressSigner",
              "type": "address"
            }
          ],
          "internalType": "struct UserOp",
          "name": "userop",
          "type": "tuple"
        }
      ],
      "name": "entrypoint",
      "outputs": [],
      "stateMutability": "nonpayable",
      "type": "function"
    },
    {
      "inputs": [],
      "name": "getNonce",
      "outputs": [
        {
          "internalType": "uint256",
          "name": "",
          "type": "uint256"
        }
      ],
      "stateMutability": "view",
      "type": "function"
    },
    {
      "inputs": [
        {
          "components": [
            {
              "internalType": "uint256",
              "name": "functionType",
              "type": "uint256"
            },
            {
              "internalType": "bytes",
              "name": "argument",
              "type": "bytes"
            },
            {
              "internalType": "uint256",
              "name": "nonce",
              "type": "uint256"
            },
            {
              "internalType": "bytes",
              "name": "signature",
              "type": "bytes"
            },
            {
              "internalType": "uint256",
              "name": "signatureType",
              "type": "uint256"
            },
            {
              "internalType": "string",
              "name": "passkeySigner",
              "type": "string"
            },
            {
              "internalType": "address",
              "name": "addressSigner",
              "type": "address"
            }
          ],
          "internalType": "struct UserOp",
          "name": "userop",
          "type": "tuple"
        }
      ],
      "name": "getUserOpHash",
      "outputs": [
        {
          "internalType": "bytes32",
          "name": "",
          "type": "bytes32"
        }
      ],
      "stateMutability": "view",
      "type": "function"
    },
    {
      "inputs": [
        {
          "internalType": "address",
          "name": "newOwner",
          "type": "address"
        }
      ],
      "name": "initialize",
      "outputs": [],
      "stateMutability": "nonpayable",
      "type": "function"
    },
    {
      "inputs": [
        {
          "internalType": "address",
          "name": "_add",
          "type": "address"
        }
      ],
      "name": "isAddressOwner",
      "outputs": [
        {
          "internalType": "bool",
          "name": "",
          "type": "bool"
        }
      ],
      "stateMutability": "view",
      "type": "function"
    },
    {
      "inputs": [
        {
          "internalType": "string",
          "name": "keyId",
          "type": "string"
        }
      ],
      "name": "isPassKeyEnabled",
      "outputs": [
        {
          "internalType": "bool",
          "name": "",
          "type": "bool"
        }
      ],
      "stateMutability": "view",
      "type": "function"
    },
    {
      "inputs": [
        {
          "internalType": "bytes32",
          "name": "_hash",
          "type": "bytes32"
        },
        {
          "internalType": "bytes",
          "name": "_signature",
          "type": "bytes"
        }
      ],
      "name": "isValidSignature",
      "outputs": [
        {
          "internalType": "bytes4",
          "name": "magicValue",
          "type": "bytes4"
        }
      ],
      "stateMutability": "view",
      "type": "function"
    },
    {
      "stateMutability": "payable",
      "type": "receive"
    }
  ],
  "bytecode": "0x608080604052346100c1576000549060ff8260081c1661006f575060ff80821603610034575b60405161083d90816100c78239f35b60ff90811916176000557f7f26b83ff96e1f2b6a682f133852f6798a09c465da95921460cefb3847402498602060405160ff8152a138610025565b62461bcd60e51b815260206004820152602760248201527f496e697469616c697a61626c653a20636f6e747261637420697320696e697469604482015266616c697a696e6760c81b6064820152608490fd5b600080fdfe6080604052600436101561001b575b361561001957600080fd5b005b6000803560e01c9081631626ba7e1461009e575080632cc19c76146100995780633511de4114610094578063b284cdd41461008f578063b34b04af1461008a578063c4d66de814610085578063d087d288146100805763fb7aed800361000e5761046d565b61044f565b610362565b6102fc565b6102a9565b61022c565b6101fb565b346100ef5760403660031901126100ef576024356001600160401b0381116100eb57366023820112156100eb57906100e2602092369060248160040135910161017f565b50604051908152f35b5080fd5b80fd5b634e487b7160e01b600052604160045260246000fd5b606081019081106001600160401b0382111761012357604052565b6100f2565b604081019081106001600160401b0382111761012357604052565b608081019081106001600160401b0382111761012357604052565b90601f801991011681019081106001600160401b0382111761012357604052565b9291926001600160401b03821161012357604051916101a8601f8201601f19166020018461015e565b8294818452818301116101c5578281602093846000960137010152565b600080fd5b600319906020818301126101c557600435916001600160401b0383116101c5578260e0920301126101c55760040190565b346101c557602061021361020e366101ca565b610777565b604051908152f35b6001600160a01b038116036101c557565b346101c55760203660031901126101c5576004356102498161021b565b6040516001600160a01b03909116602080830191825282529061026b81610128565b5190206000526001602052602060ff604060002054166040519015158152f35b9080601f830112156101c5578160206102a69335910161017f565b90565b346101c55760203660031901126101c5576004356001600160401b0381116101c5576102d990369060040161028b565b60405161026b816102ee602082019485610538565b03601f19810183528261015e565b346101c55761030d61020e366101ca565b5060405162461bcd60e51b815260206004820152602660248201527f4163636f756e743a205369676e617475726520766572696669636174696f6e2060448201526519985a5b195960d21b6064820152608490fd5b346101c55760203660031901126101c55760043561037f8161021b565b6103c3600054916103a760ff8460081c161580948195610441575b8115610421575b506106d5565b826103ba600160ff196000541617600055565b61040857610738565b6103c957005b6103d961ff001960005416600055565b604051600181527f7f26b83ff96e1f2b6a682f133852f6798a09c465da95921460cefb384740249890602090a1005b61041c61010061ff00196000541617600055565b610738565b303b15915081610433575b50386103a1565b6001915060ff16143861042c565b600160ff821610915061039a565b346101c55760003660031901126101c5576020600354604051908152f35b346101c55760603660031901126101c5576044356001600160401b0381116101c5576104a061001991369060040161028b565b6105066020604051926104b284610108565b600435845260243582850152806040850152604051828101906104d9816102ee8585610538565b519020600052600182526040600020600160ff198254161790558160405193828580945193849201610515565b810160028152030190206105f2565b60005b8381106105285750506000910152565b8181015183820152602001610518565b604091602082526105588151809281602086015260208686019101610515565b601f01601f1916010190565b90600182811c92168015610594575b602083101461057e57565b634e487b7160e01b600052602260045260246000fd5b91607f1691610573565b90601f81116105ac57505050565b600091825260208220906020601f850160051c830194106105e8575b601f0160051c01915b8281106105dd57505050565b8181556001016105d1565b90925082906105c8565b8151815560206040600282850151936001948582015501930151908151916001600160401b038311610123576106328361062c8754610564565b8761059e565b81601f841160011461066b5750928293918392600094610660575b50501b916000199060031b1c1916179055565b01519250388061064d565b919083601f19811661068288600052602060002090565b946000905b888383106106bb57505050106106a2575b505050811b019055565b015160001960f88460031b161c19169055388080610698565b858701518855909601959485019487935090810190610687565b156106dc57565b60405162461bcd60e51b815260206004820152602e60248201527f496e697469616c697a61626c653a20636f6e747261637420697320616c72656160448201526d191e481a5b9a5d1a585b1a5e995960921b6064820152608490fd5b6040516001600160a01b03909116602080830191825282529061075a81610128565b51902060005260016020526040600020600160ff19825416179055565b6020810135601e19823603018112156101c55781018035906001600160401b0382116101c55760200181360381136101c55781604051918237209060408051916020830193813585528284015201356060820152606081526107d881610143565b5190206040805160208101928352309181019190915246606082015261080181608081016102ee565b5190209056fea264697066735822122099255375c5d66cf12781ae4b3476a5f17d2b35f7aee776cb46e910bc1f6a00cc64736f6c63430008130033",
  "linkReferences": {},
  "deployedLinkReferences": {}
}